:100000000C943E000C9448000C9448000C9448005A
:100010000C9448000C9448000C9448000C94480040
:100020000C9448000C9448000C9448000C94480030
:100030000C9448000C9448000C9448000C94480020
:100040000C9448000C9448000C9448000C94480010
:100050000C9448000C9448000C9448000C94480000
:100060000C9448000C9448000C9448000C944800F0
:100070000C9448000C9448000C94480011241FBEB6
:10008000CFEFD8E0DEBFCDBF0E947C000C94A5006E
:100090000C94000011B88FEF84B987B91AB808958D
:1000A00010927C0086E880937A00089510927A007E
:1000B000089580917C00807E80937C0080917C00FC
:1000C0006770682B60937C0080917A0080648093D5
:1000D0007A0080917A0084FFFCCF80917A00806161
:1000E00080937A00209178008091790090E0982F99
:1000F0008827820F911D0895CF93DF931F92CDB76C
:10010000DEB70E944A00CE0101960E94500010E026
:1001100001E062E0CE0101960E9459009695879514
:10012000969587958635910510F405B9F2CF8B3AEF
:10013000910540F4112311F005B902C082E085B9A0
:0E0140001027E7CF82E085B9E4CFF894FFCF17
:00000001FF
